{
  "abi": [
    {
      "type": "constructor",
      "inputs": [
        {
          "name": "name",
          "type": "string",
          "internalType": "string"
        },
        {
          "name": "verifyingContract",
          "type": "address",
          "internalType": "address"
        },
        {
          "name": "chainid",
          "type": "uint256",
          "internalType": "uint256"
        }
      ],
      "stateMutability": "nonpayable"
    },
    {
      "type": "function",
      "name": "ESTIMATION_TYPEHASH",
      "inputs": [],
      "outputs": [
        {
          "name": "",
          "type": "bytes32",
          "internalType": "bytes32"
        }
      ],
      "stateMutability": "view"
    },
    {
      "type": "function",
      "name": "ESTIMATION_VALUES_TYPEHASH",
      "inputs": [],
      "outputs": [
        {
          "name": "",
          "type": "bytes32",
          "internalType": "bytes32"
        }
      ],
      "stateMutability": "view"
    },
    {
      "type": "function",
      "name": "eip712Domain",
      "inputs": [],
      "outputs": [
        {
          "name": "fields",
          "type": "bytes1",
          "internalType": "bytes1"
        },
        {
          "name": "name",
          "type": "string",
          "internalType": "string"
        },
        {
          "name": "version",
          "type": "string",
          "internalType": "string"
        },
        {
          "name": "chainId",
          "type": "uint256",
          "internalType": "uint256"
        },
        {
          "name": "verifyingContract",
          "type": "address",
          "internalType": "address"
        },
        {
          "name": "salt",
          "type": "bytes32",
          "internalType": "bytes32"
        },
        {
          "name": "extensions",
          "type": "uint256[]",
          "internalType": "uint256[]"
        }
      ],
      "stateMutability": "view"
    },
    {
      "type": "function",
      "name": "getGasEstimationQuantile",
      "inputs": [
        {
          "name": "chainId",
          "type": "uint256",
          "internalType": "uint256"
        },
        {
          "name": "delay",
          "type": "uint64",
          "internalType": "uint64"
        },
        {
          "name": "quantile",
          "type": "uint8",
          "internalType": "enum Oracle.Quantile"
        }
      ],
      "outputs": [
        {
          "name": "val",
          "type": "tuple",
          "internalType": "struct Oracle.EstimationValues",
          "components": [
            {
              "name": "gasPrice",
              "type": "uint256",
              "internalType": "uint256"
            },
            {
              "name": "maxPriorityFeePerGas",
              "type": "uint256",
              "internalType": "uint256"
            },
            {
              "name": "maxFeePerGas",
              "type": "uint256",
              "internalType": "uint256"
            }
          ]
        }
      ],
      "stateMutability": "view"
    },
    {
      "type": "function",
      "name": "setEstimation",
      "inputs": [
        {
          "name": "est",
          "type": "tuple",
          "internalType": "struct Oracle.Estimation",
          "components": [
            {
              "name": "Q70",
              "type": "tuple",
              "internalType": "struct Oracle.EstimationValues",
              "components": [
                {
                  "name": "gasPrice",
                  "type": "uint256",
                  "internalType": "uint256"
                },
                {
                  "name": "maxPriorityFeePerGas",
                  "type": "uint256",
                  "internalType": "uint256"
                },
                {
                  "name": "maxFeePerGas",
                  "type": "uint256",
                  "internalType": "uint256"
                }
              ]
            },
            {
              "name": "Q80",
              "type": "tuple",
              "internalType": "struct Oracle.EstimationValues",
              "components": [
                {
                  "name": "gasPrice",
                  "type": "uint256",
                  "internalType": "uint256"
                },
                {
                  "name": "maxPriorityFeePerGas",
                  "type": "uint256",
                  "internalType": "uint256"
                },
                {
                  "name": "maxFeePerGas",
                  "type": "uint256",
                  "internalType": "uint256"
                }
              ]
            },
            {
              "name": "Q90",
              "type": "tuple",
              "internalType": "struct Oracle.EstimationValues",
              "components": [
                {
                  "name": "gasPrice",
                  "type": "uint256",
                  "internalType": "uint256"
                },
                {
                  "name": "maxPriorityFeePerGas",
                  "type": "uint256",
                  "internalType": "uint256"
                },
                {
                  "name": "maxFeePerGas",
                  "type": "uint256",
                  "internalType": "uint256"
                }
              ]
            },
            {
              "name": "Q95",
              "type": "tuple",
              "internalType": "struct Oracle.EstimationValues",
              "components": [
                {
                  "name": "gasPrice",
                  "type": "uint256",
                  "internalType": "uint256"
                },
                {
                  "name": "maxPriorityFeePerGas",
                  "type": "uint256",
                  "internalType": "uint256"
                },
                {
                  "name": "maxFeePerGas",
                  "type": "uint256",
                  "internalType": "uint256"
                }
              ]
            },
            {
              "name": "Q99",
              "type": "tuple",
              "internalType": "struct Oracle.EstimationValues",
              "components": [
                {
                  "name": "gasPrice",
                  "type": "uint256",
                  "internalType": "uint256"
                },
                {
                  "name": "maxPriorityFeePerGas",
                  "type": "uint256",
                  "internalType": "uint256"
                },
                {
                  "name": "maxFeePerGas",
                  "type": "uint256",
                  "internalType": "uint256"
                }
              ]
            },
            {
              "name": "precision",
              "type": "uint8",
              "internalType": "uint8"
            },
            {
              "name": "height",
              "type": "uint128",
              "internalType": "uint128"
            },
            {
              "name": "timestamp",
              "type": "uint256",
              "internalType": "uint256"
            },
            {
              "name": "chainid",
              "type": "uint256",
              "internalType": "uint256"
            }
          ]
        },
        {
          "name": "signature",
          "type": "bytes",
          "internalType": "bytes"
        }
      ],
      "outputs": [],
      "stateMutability": "nonpayable"
    },
    {
      "type": "function",
      "name": "setVerifier",
      "inputs": [
        {
          "name": "v",
          "type": "address",
          "internalType": "address"
        }
      ],
      "outputs": [],
      "stateMutability": "nonpayable"
    },
    {
      "type": "event",
      "name": "EIP712DomainChanged",
      "inputs": [],
      "anonymous": false
    },
    {
      "type": "error",
      "name": "ECDSAInvalidSignature",
      "inputs": []
    },
    {
      "type": "error",
      "name": "ECDSAInvalidSignatureLength",
      "inputs": [
        {
          "name": "length",
          "type": "uint256",
          "internalType": "uint256"
        }
      ]
    },
    {
      "type": "error",
      "name": "ECDSAInvalidSignatureS",
      "inputs": [
        {
          "name": "s",
          "type": "bytes32",
          "internalType": "bytes32"
        }
      ]
    },
    {
      "type": "error",
      "name": "InvalidShortString",
      "inputs": []
    },
    {
      "type": "error",
      "name": "StringTooLong",
      "inputs": [
        {
          "name": "str",
          "type": "string",
          "internalType": "string"
        }
      ]
    }
  ],
  "bytecode": {
    "object": "0x6101a060405234801561001157600080fd5b5060405161173d38038061173d83398101604081905261003091610221565b6040805180820190915260018152603160f81b6020820152839083908390610059846000610151565b61014052610068816001610151565b610160526001600160a01b03831661012052610180829052835160208086019190912060e052815190820120610100524660a05261011b60e051610100516101805161012051604080517f8b73c3c69bb8fe3d512ecc4cf759cc79239f7b179b0ffacaa9a75d522b39400f602082015290810194909452606084019290925260808301526001600160a01b031660a082015260009060c00160405160208183030381529060405280519060200120905090565b60805250503060c052505060028054336001600160a01b031991821681179092556003805490911690911790555061048f915050565b600060208351101561016d5761016683610184565b905061017e565b81610178848261037a565b5060ff90505b92915050565b600080829050601f815111156101b8578260405163305a27a960e01b81526004016101af9190610438565b60405180910390fd5b80516101c38261046b565b179392505050565b634e487b7160e01b600052604160045260246000fd5b60005b838110156101fc5781810151838201526020016101e4565b50506000910152565b80516001600160a01b038116811461021c57600080fd5b919050565b60008060006060848603121561023657600080fd5b83516001600160401b0381111561024c57600080fd5b8401601f8101861361025d57600080fd5b80516001600160401b03811115610276576102766101cb565b604051601f8201601f19908116603f011681016001600160401b03811182821017156102a4576102a46101cb565b6040528181528282016020018810156102bc57600080fd5b6102cd8260208301602086016101e1565b94506102de91505060208501610205565b6040949094015192959394509192915050565b600181811c9082168061030557607f821691505b60208210810361032557634e487b7160e01b600052602260045260246000fd5b50919050565b601f82111561037557806000526020600020601f840160051c810160208510156103525750805b601f840160051c820191505b81811015610372576000815560010161035e565b50505b505050565b81516001600160401b03811115610393576103936101cb565b6103a7816103a184546102f1565b8461032b565b6020601f8211600181146103db57600083156103c35750848201515b600019600385901b1c1916600184901b178455610372565b600084815260208120601f198516915b8281101561040b57878501518255602094850194600190920191016103eb565b50848210156104295786840151600019600387901b60f8161c191681555b50505050600190811b01905550565b60208152600082518060208401526104578160408501602087016101e1565b601f01601f19169190910160400192915050565b805160208083015191908110156103255760001960209190910360031b1b16919050565b60805160a05160c05160e051610100516101205161014051610160516101805161123e6104ff6000396000610a4c01526000610926015260006108f401526000610a7a01526000610a26015260006109fe0152600061095901526000610983015260006109ad015261123e6000f3fe608060405234801561001057600080fd5b50600436106100625760003560e01c806308a1d3a81461006757806324dab52b146100a15780635437988d146100b65780637f21f6e7146100c957806384b0196e146100fe578063c2e5482614610119575b600080fd5b61008e7ff34aee2ebf05511691143b0159be32da81dbaae6015edfcf4ab010b71024674e81565b6040519081526020015b60405180910390f35b6100b46100af366004610dab565b610140565b005b6100b46100c4366004610e3b565b61050b565b6100dc6100d7366004610e64565b610544565b6040805182518152602080840151908201529181015190820152606001610098565b6101066107d2565b6040516100989796959493929190610efd565b61008e7f6a99540966dcde10684638e9061f4cf8a978c1355e7a11d9c8dee737641df51981565b60006102717ff34aee2ebf05511691143b0159be32da81dbaae6015edfcf4ab010b71024674e61017d61017836889003880188610f95565b610818565b61019261017836899003890160608a01610f95565b6101a7610178368a90038a0160c08b01610f95565b6101bd610178368b90038b016101208c01610f95565b6101d3610178368c90038c016101808d01610f95565b6101e56102008c016101e08d01611013565b6101f76102208d016102008e01611045565b6040805160208101999099528801969096526060870194909452608086019290925260a085015260c084015260ff1660e08301526001600160801b03166101008201526102208601356101208201526102408601356101408201526101600160405160208183030381529060405280519060200120610890565b905060006102b58285858080601f0160208091040260200160405190810160405280939291908181526020018383808284376000920191909152506108c392505050565b6003549091506001600160a01b0380831691161461030b5760405162461bcd60e51b815260206004820152600e60248201526d34b73b30b634b21039b4b3b732b960911b60448201526064015b60405180910390fd5b6001600160a01b0381166103615760405162461bcd60e51b815260206004820152601860248201527f45434453413a20696e76616c6964207369676e617475726500000000000000006044820152606401610302565b61024085013560009081526004602081815260409283902083516101808101855281546101208201908152600183015461014083015260028301546101608301528152845160608181018752600384015482529483015481850152600583015481870152818401528451808501865260068301548152600783015481850152600883015481870152818601528451808501865260098301548152600a83015481850152600b830154818701528482015284519384018552600c8201548452600d82015492840192909252600e810154938301939093526080810191909152600f82015460ff811660a08301526001600160801b03610100918290041660c08301819052601084015460e0840152601190930154908201529061048b61022088016102008901611045565b6001600160801b0316116104e15760405162461bcd60e51b815260206004820152601960248201527f657374696d6174696f6e20616c726561647920657869737473000000000000006044820152606401610302565b61024086013560009081526004602052604090208690610501828261107c565b5050505050505050565b6002546001600160a01b0316331461052257600080fd5b600380546001600160a01b0319166001600160a01b0392909216919091179055565b61056860405180606001604052806000815260200160008152602001600081525090565b60008481526004602081815260409283902083516101808101855281546101208201908152600183015461014083015260028301546101608301528152845160608181018752600384015482529483015481850152600583015481870152818401528451808501865260068301548152600783015481850152600883015481870152818601528451808501865260098301548152600a83015481850152600b830154818701528482015284519384018552600c8201548452600d82015492840192909252600e810154938301939093526080810191909152600f82015460ff811660a08301526001600160801b03610100918290041660c08301819052601084015460e084015260119093015490820152906106c65760405162461bcd60e51b815260206004820152601a60248201527f6e6f20657374696d6174696f6e7320666f72206e6574776f726b0000000000006044820152606401610302565b8367ffffffffffffffff168160e00151426106e19190611197565b106107185760405162461bcd60e51b81526020600482015260076024820152661d1a5b595bdd5d60ca1b6044820152606401610302565b600083600481111561072c5761072c6111b8565b0361073c576080015190506107cb565b6001836004811115610750576107506111b8565b03610760576060015190506107cb565b6002836004811115610774576107746111b8565b03610784576040015190506107cb565b6003836004811115610798576107986111b8565b036107a8576020015190506107cb565b60048360048111156107bc576107bc6111b8565b036107c9575190506107cb565b505b9392505050565b6000606080600080600060606107e66108ed565b6107ee61091f565b60408051600080825260208201909252600f60f81b9b939a50919850469750309650945092509050565b60007f6a99540966dcde10684638e9061f4cf8a978c1355e7a11d9c8dee737641df519826000015183602001518460400151604051602001610873949392919093845260208401929092526040830152606082015260800190565b604051602081830303815290604052805190602001209050919050565b60006108bd61089d61094c565b8360405161190160f01b8152600281019290925260228201526042902090565b92915050565b6000806000806108d38686610ac0565b9250925092506108e38282610b0d565b5090949350505050565b606061091a7f00000000000000000000000000000000000000000000000000000000000000006000610bca565b905090565b606061091a7f00000000000000000000000000000000000000000000000000000000000000006001610bca565b6000306001600160a01b037f0000000000000000000000000000000000000000000000000000000000000000161480156109a557507f000000000000000000000000000000000000000000000000000000000000000046145b156109cf57507f000000000000000000000000000000000000000000000000000000000000000090565b61091a604080517f8b73c3c69bb8fe3d512ecc4cf759cc79239f7b179b0ffacaa9a75d522b39400f60208201527f0000000000000000000000000000000000000000000000000000000000000000918101919091527f000000000000000000000000000000000000000000000000000000000000000060608201527f000000000000000000000000000000000000000000000000000000000000000060808201526001600160a01b037f00000000000000000000000000000000000000000000000000000000000000001660a082015260009060c00160405160208183030381529060405280519060200120905090565b60008060008351604103610afa5760208401516040850151606086015160001a610aec88828585610c75565b955095509550505050610b06565b50508151600091506002905b9250925092565b6000826003811115610b2157610b216111b8565b03610b2a575050565b6001826003811115610b3e57610b3e6111b8565b03610b5c5760405163f645eedf60e01b815260040160405180910390fd5b6002826003811115610b7057610b706111b8565b03610b915760405163fce698f760e01b815260048101829052602401610302565b6003826003811115610ba557610ba56111b8565b03610bc6576040516335e2f38360e21b815260048101829052602401610302565b5050565b606060ff8314610be457610bdd83610d44565b90506108bd565b818054610bf0906111ce565b80601f0160208091040260200160405190810160405280929190818152602001828054610c1c906111ce565b8015610c695780601f10610c3e57610100808354040283529160200191610c69565b820191906000526020600020905b815481529060010190602001808311610c4c57829003601f168201915b505050505090506108bd565b600080807f7fffffffffffffffffffffffffffffff5d576e7357a4501ddfe92f46681b20a0841115610cb05750600091506003905082610d3a565b604080516000808252602082018084528a905260ff891692820192909252606081018790526080810186905260019060a0016020604051602081039080840390855afa158015610d04573d6000803e3d6000fd5b5050604051601f1901519150506001600160a01b038116610d3057506000925060019150829050610d3a565b9250600091508190505b9450945094915050565b60606000610d5183610d83565b604080516020808252818301909252919250600091906020820181803683375050509182525060208101929092525090565b600060ff8216601f8111156108bd57604051632cd44ac360e21b815260040160405180910390fd5b6000806000838503610280811215610dc257600080fd5b610260811215610dd157600080fd5b5083925061026084013567ffffffffffffffff811115610df057600080fd5b8401601f81018613610e0157600080fd5b803567ffffffffffffffff811115610e1857600080fd5b866020828401011115610e2a57600080fd5b939660209190910195509293505050565b600060208284031215610e4d57600080fd5b81356001600160a01b03811681146107cb57600080fd5b600080600060608486031215610e7957600080fd5b83359250602084013567ffffffffffffffff81168114610e9857600080fd5b9150604084013560058110610eac57600080fd5b809150509250925092565b6000815180845260005b81811015610edd57602081850181015186830182015201610ec1565b506000602082860101526020601f19601f83011685010191505092915050565b60ff60f81b8816815260e060208201526000610f1c60e0830189610eb7565b8281036040840152610f2e8189610eb7565b606084018890526001600160a01b038716608085015260a0840186905283810360c08501528451808252602080870193509091019060005b81811015610f84578351835260209384019390920191600101610f66565b50909b9a5050505050505050505050565b60006060828403128015610fa857600080fd5b600090506040516060810181811067ffffffffffffffff82111715610fdb57634e487b7160e01b83526041600452602483fd5b604090815284358252602080860135908301529384013593810193909352509092915050565b60ff8116811461101057600080fd5b50565b60006020828403121561102557600080fd5b81356107cb81611001565b6001600160801b038116811461101057600080fd5b60006020828403121561105757600080fd5b81356107cb81611030565b600081356108bd81611001565b600081356108bd81611030565b813581556020820135600182015560408201356002820155606082013560038201556080820135600482015560a0820135600582015560c0820135600682015560e0820135600782015561010082013560088201556101208201356009820155610140820135600a820155610160820135600b820155610180820135600c8201556101a0820135600d8201556101c0820135600e820155600f81016111386111276101e08501611062565b825460ff191660ff91909116178255565b61117c611148610200850161106f565b825470ffffffffffffffffffffffffffffffff00191660089190911b70ffffffffffffffffffffffffffffffff0016178255565b50610220820135601082015561024090910135601190910155565b818103818111156108bd57634e487b7160e01b600052601160045260246000fd5b634e487b7160e01b600052602160045260246000fd5b600181811c908216806111e257607f821691505b60208210810361120257634e487b7160e01b600052602260045260246000fd5b5091905056fea264697066735822122006726ea09b356225e8e8d27f726b3c7d4c217acb80dfd6eedfe81ac36187812f64736f6c634300081a0033",
    "linkReferences": {}
  },
  "methodIdentifiers": {
    "ESTIMATION_TYPEHASH()": "08a1d3a8",
    "ESTIMATION_VALUES_TYPEHASH()": "c2e54826",
    "eip712Domain()": "84b0196e",
    "getGasEstimationQuantile(uint256,uint64,uint8)": "7f21f6e7",
    "setEstimation(((uint256,uint256,uint256),(uint256,uint256,uint256),(uint256,uint256,uint256),(uint256,uint256,uint256),(uint256,uint256,uint256),uint8,uint128,uint256,uint256),bytes)": "24dab52b",
    "setVerifier(address)": "5437988d"
  },
  "id": 36
}