{
  "abi": [
    {
      "type": "constructor",
      "inputs": [],
      "stateMutability": "nonpayable"
    },
    {
      "type": "function",
      "name": "get",
      "inputs": [
        {
          "name": "sid",
          "type": "uint8",
          "internalType": "uint8"
        },
        {
          "name": "cid",
          "type": "uint64",
          "internalType": "uint64"
        },
        {
          "name": "typ",
          "type": "uint16",
          "internalType": "uint16"
        }
      ],
      "outputs": [
        {
          "name": "estimtion",
          "type": "uint256",
          "internalType": "uint256"
        },
        {
          "name": "timestamp",
          "type": "uint48",
          "internalType": "uint48"
        }
      ],
      "stateMutability": "view"
    },
    {
      "type": "function",
      "name": "getInTime",
      "inputs": [
        {
          "name": "sid",
          "type": "uint8",
          "internalType": "uint8"
        },
        {
          "name": "cid",
          "type": "uint64",
          "internalType": "uint64"
        },
        {
          "name": "typ",
          "type": "uint16",
          "internalType": "uint16"
        },
        {
          "name": "tin",
          "type": "uint16",
          "internalType": "uint16"
        }
      ],
      "outputs": [
        {
          "name": "estimtion",
          "type": "uint256",
          "internalType": "uint256"
        },
        {
          "name": "height",
          "type": "uint64",
          "internalType": "uint64"
        }
      ],
      "stateMutability": "view"
    },
    {
      "type": "function",
      "name": "setSignerAddress",
      "inputs": [
        {
          "name": "s",
          "type": "address",
          "internalType": "address"
        }
      ],
      "outputs": [],
      "stateMutability": "nonpayable"
    },
    {
      "type": "function",
      "name": "storeValues",
      "inputs": [
        {
          "name": "dat",
          "type": "bytes",
          "internalType": "bytes"
        }
      ],
      "outputs": [],
      "stateMutability": "nonpayable"
    },
    {
      "type": "function",
      "name": "transferOwnership",
      "inputs": [
        {
          "name": "o",
          "type": "address",
          "internalType": "address"
        }
      ],
      "outputs": [],
      "stateMutability": "nonpayable"
    }
  ],
  "bytecode": {
    "object": "0x6080604052348015600e575f80fd5b505f80546001600160a01b031916331790556107df8061002d5f395ff3fe608060405234801561000f575f80fd5b5060043610610055575f3560e01c80630385389d14610059578063046dc166146100c9578063105d5389146100de5780631fb40911146100f1578063f2fde38b14610122575b5f80fd5b6100a86100673660046105d9565b6001600160581b03604093841b9290920160101b01165f90815260026020522080546001909101546001600160f01b039091169165ffffffffffff90911690565b6040805192835265ffffffffffff9091166020830152015b60405180910390f35b6100dc6100d7366004610619565b610135565b005b6100dc6100ec36600461065a565b61016c565b6101046100ff36600461070d565b61034a565b6040805192835267ffffffffffffffff9091166020830152016100c0565b6100dc610130366004610619565b6103cf565b5f546001600160a01b0316331461014a575f80fd5b600180546001600160a01b0319166001600160a01b0392909216919091179055565b602081015f80808061019f855160c081901c91603882901c62010000600160c81b031691609081901c9160089190911c90565b60015492975092955093509091505f90819081906101c99087908a906001600160a01b0316610405565b8561ffff168160ff16101561033f576040602082028a0101519250600183901a915061ffff19871682016001600160581b0381165f90815260026020526040902060018101549198509067ffffffffffffffff8087166601000000000000909204161080156102475750600181015465ffffffffffff808816911611155b1561032c576040518060600160405280856001600160f01b031681526020018765ffffffffffff1681526020018667ffffffffffffffff1681525060025f8a6001600160581b03166001600160581b031681526020019081526020015f205f820151815f015f6101000a8154816001600160f01b0302191690836001600160f01b031602179055506020820151816001015f6101000a81548165ffffffffffff021916908365ffffffffffff16021790555060408201518160010160066101000a81548167ffffffffffffffff021916908367ffffffffffffffff1602179055509050505b8161033681610772565b925050506101c9565b505050505050505050565b604084811b840160101b83016001600160581b03165f9081526002602052908120819061037b61ffff851642610790565b600182015465ffffffffffff1611156103be5780546001909101546001600160f01b0390911692506601000000000000900467ffffffffffffffff1690506103c6565b5f8092509250505b94509492505050565b5f546001600160a01b031633146103e4575f80fd5b5f80546001600160a01b0319166001600160a01b0392909216919091179055565b6020808402808201842093019081015160408201516060909201805190949192915f9190911a90601b821480159061044157508160ff16601c14155b1561048c5760405162461bcd60e51b8152602060048201526016602482015275696e76616c6964207369676e6572207620706172616d60501b60448201526064015b60405180910390fd5b604080515f8082526020820180845284905260ff851692820192909252606081018690526080810185905260019060a0016020604051602081039080840390855afa1580156104dd573d5f803e3d5ffd5b5050604051601f1901519150506001600160a01b0381166105405760405162461bcd60e51b815260206004820152601860248201527f45434453413a20696e76616c6964207369676e617475726500000000000000006044820152606401610483565b806001600160a01b0316866001600160a01b0316146105925760405162461bcd60e51b815260206004820152600e60248201526d34b73b30b634b21039b4b3b732b960911b6044820152606401610483565b5050505050505050565b803560ff811681146105ac575f80fd5b919050565b803567ffffffffffffffff811681146105ac575f80fd5b803561ffff811681146105ac575f80fd5b5f805f606084860312156105eb575f80fd5b6105f48461059c565b9250610602602085016105b1565b9150610610604085016105c8565b90509250925092565b5f60208284031215610629575f80fd5b81356001600160a01b038116811461063f575f80fd5b9392505050565b634e487b7160e01b5f52604160045260245ffd5b5f6020828403121561066a575f80fd5b813567ffffffffffffffff811115610680575f80fd5b8201601f81018413610690575f80fd5b803567ffffffffffffffff8111156106aa576106aa610646565b604051601f8201601f19908116603f0116810167ffffffffffffffff811182821017156106d9576106d9610646565b6040528181528282016020018610156106f0575f80fd5b816020840160208301375f91810160200191909152949350505050565b5f805f8060808587031215610720575f80fd5b6107298561059c565b9350610737602086016105b1565b9250610745604086016105c8565b9150610753606086016105c8565b905092959194509250565b634e487b7160e01b5f52601160045260245ffd5b5f60ff821660ff81036107875761078761075e565b60010192915050565b818103818111156107a3576107a361075e565b9291505056fea26469706673582212202f6e739780e5c1f6e1f628cf71feff84c9012fe9271c04c1c107e0f17a11e80b64736f6c634300081a0033",
    "linkReferences": {}
  },
  "methodIdentifiers": {
    "get(uint8,uint64,uint16)": "0385389d",
    "getInTime(uint8,uint64,uint16,uint16)": "1fb40911",
    "setSignerAddress(address)": "046dc166",
    "storeValues(bytes)": "105d5389",
    "transferOwnership(address)": "f2fde38b"
  },
  "id": 25
}