{
  "abi": [
    {
      "type": "constructor",
      "inputs": [
        {
          "name": "name",
          "type": "string",
          "internalType": "string"
        },
        {
          "name": "verifyingContract",
          "type": "address",
          "internalType": "address"
        },
        {
          "name": "chainid",
          "type": "uint256",
          "internalType": "uint256"
        }
      ],
      "stateMutability": "nonpayable"
    },
    {
      "type": "function",
      "name": "ESTIMATION_TYPEHASH",
      "inputs": [],
      "outputs": [
        {
          "name": "",
          "type": "bytes32",
          "internalType": "bytes32"
        }
      ],
      "stateMutability": "view"
    },
    {
      "type": "function",
      "name": "ESTIMATION_VALUES_TYPEHASH",
      "inputs": [],
      "outputs": [
        {
          "name": "",
          "type": "bytes32",
          "internalType": "bytes32"
        }
      ],
      "stateMutability": "view"
    },
    {
      "type": "function",
      "name": "eip712Domain",
      "inputs": [],
      "outputs": [
        {
          "name": "fields",
          "type": "bytes1",
          "internalType": "bytes1"
        },
        {
          "name": "name",
          "type": "string",
          "internalType": "string"
        },
        {
          "name": "version",
          "type": "string",
          "internalType": "string"
        },
        {
          "name": "chainId",
          "type": "uint256",
          "internalType": "uint256"
        },
        {
          "name": "verifyingContract",
          "type": "address",
          "internalType": "address"
        },
        {
          "name": "salt",
          "type": "bytes32",
          "internalType": "bytes32"
        },
        {
          "name": "extensions",
          "type": "uint256[]",
          "internalType": "uint256[]"
        }
      ],
      "stateMutability": "view"
    },
    {
      "type": "function",
      "name": "getGasEstimationQuantile",
      "inputs": [
        {
          "name": "chainId",
          "type": "uint256",
          "internalType": "uint256"
        },
        {
          "name": "delay",
          "type": "uint64",
          "internalType": "uint64"
        },
        {
          "name": "quantile",
          "type": "uint8",
          "internalType": "uint8"
        }
      ],
      "outputs": [
        {
          "name": "val",
          "type": "tuple",
          "internalType": "struct Oracle.EstimationValues",
          "components": [
            {
              "name": "gasPrice",
              "type": "uint256",
              "internalType": "uint256"
            },
            {
              "name": "maxPriorityFeePerGas",
              "type": "uint256",
              "internalType": "uint256"
            },
            {
              "name": "maxFeePerGas",
              "type": "uint256",
              "internalType": "uint256"
            }
          ]
        }
      ],
      "stateMutability": "view"
    },
    {
      "type": "function",
      "name": "setEstimation",
      "inputs": [
        {
          "name": "est",
          "type": "tuple",
          "internalType": "struct Oracle.Estimation",
          "components": [
            {
              "name": "Q70",
              "type": "tuple",
              "internalType": "struct Oracle.EstimationValues",
              "components": [
                {
                  "name": "gasPrice",
                  "type": "uint256",
                  "internalType": "uint256"
                },
                {
                  "name": "maxPriorityFeePerGas",
                  "type": "uint256",
                  "internalType": "uint256"
                },
                {
                  "name": "maxFeePerGas",
                  "type": "uint256",
                  "internalType": "uint256"
                }
              ]
            },
            {
              "name": "Q80",
              "type": "tuple",
              "internalType": "struct Oracle.EstimationValues",
              "components": [
                {
                  "name": "gasPrice",
                  "type": "uint256",
                  "internalType": "uint256"
                },
                {
                  "name": "maxPriorityFeePerGas",
                  "type": "uint256",
                  "internalType": "uint256"
                },
                {
                  "name": "maxFeePerGas",
                  "type": "uint256",
                  "internalType": "uint256"
                }
              ]
            },
            {
              "name": "Q90",
              "type": "tuple",
              "internalType": "struct Oracle.EstimationValues",
              "components": [
                {
                  "name": "gasPrice",
                  "type": "uint256",
                  "internalType": "uint256"
                },
                {
                  "name": "maxPriorityFeePerGas",
                  "type": "uint256",
                  "internalType": "uint256"
                },
                {
                  "name": "maxFeePerGas",
                  "type": "uint256",
                  "internalType": "uint256"
                }
              ]
            },
            {
              "name": "Q95",
              "type": "tuple",
              "internalType": "struct Oracle.EstimationValues",
              "components": [
                {
                  "name": "gasPrice",
                  "type": "uint256",
                  "internalType": "uint256"
                },
                {
                  "name": "maxPriorityFeePerGas",
                  "type": "uint256",
                  "internalType": "uint256"
                },
                {
                  "name": "maxFeePerGas",
                  "type": "uint256",
                  "internalType": "uint256"
                }
              ]
            },
            {
              "name": "Q99",
              "type": "tuple",
              "internalType": "struct Oracle.EstimationValues",
              "components": [
                {
                  "name": "gasPrice",
                  "type": "uint256",
                  "internalType": "uint256"
                },
                {
                  "name": "maxPriorityFeePerGas",
                  "type": "uint256",
                  "internalType": "uint256"
                },
                {
                  "name": "maxFeePerGas",
                  "type": "uint256",
                  "internalType": "uint256"
                }
              ]
            },
            {
              "name": "precision",
              "type": "uint8",
              "internalType": "uint8"
            },
            {
              "name": "height",
              "type": "uint128",
              "internalType": "uint128"
            },
            {
              "name": "timestamp",
              "type": "uint256",
              "internalType": "uint256"
            },
            {
              "name": "chainid",
              "type": "uint256",
              "internalType": "uint256"
            }
          ]
        },
        {
          "name": "signature",
          "type": "bytes",
          "internalType": "bytes"
        }
      ],
      "outputs": [],
      "stateMutability": "nonpayable"
    },
    {
      "type": "function",
      "name": "setVerifier",
      "inputs": [
        {
          "name": "v",
          "type": "address",
          "internalType": "address"
        }
      ],
      "outputs": [],
      "stateMutability": "nonpayable"
    },
    {
      "type": "event",
      "name": "EIP712DomainChanged",
      "inputs": [],
      "anonymous": false
    },
    {
      "type": "error",
      "name": "ECDSAInvalidSignature",
      "inputs": []
    },
    {
      "type": "error",
      "name": "ECDSAInvalidSignatureLength",
      "inputs": [
        {
          "name": "length",
          "type": "uint256",
          "internalType": "uint256"
        }
      ]
    },
    {
      "type": "error",
      "name": "ECDSAInvalidSignatureS",
      "inputs": [
        {
          "name": "s",
          "type": "bytes32",
          "internalType": "bytes32"
        }
      ]
    },
    {
      "type": "error",
      "name": "InvalidShortString",
      "inputs": []
    },
    {
      "type": "error",
      "name": "StringTooLong",
      "inputs": [
        {
          "name": "str",
          "type": "string",
          "internalType": "string"
        }
      ]
    }
  ],
  "bytecode": {
    "object": "0x6101a060405234801561001157600080fd5b5060405161179538038061179583398101604081905261003091610221565b6040805180820190915260018152603160f81b6020820152839083908390610059846000610151565b61014052610068816001610151565b610160526001600160a01b03831661012052610180829052835160208086019190912060e052815190820120610100524660a05261011b60e051610100516101805161012051604080517f8b73c3c69bb8fe3d512ecc4cf759cc79239f7b179b0ffacaa9a75d522b39400f602082015290810194909452606084019290925260808301526001600160a01b031660a082015260009060c00160405160208183030381529060405280519060200120905090565b60805250503060c052505060028054336001600160a01b031991821681179092556003805490911690911790555061048f915050565b600060208351101561016d5761016683610184565b905061017e565b81610178848261037a565b5060ff90505b92915050565b600080829050601f815111156101b8578260405163305a27a960e01b81526004016101af9190610438565b60405180910390fd5b80516101c38261046b565b179392505050565b634e487b7160e01b600052604160045260246000fd5b60005b838110156101fc5781810151838201526020016101e4565b50506000910152565b80516001600160a01b038116811461021c57600080fd5b919050565b60008060006060848603121561023657600080fd5b83516001600160401b0381111561024c57600080fd5b8401601f8101861361025d57600080fd5b80516001600160401b03811115610276576102766101cb565b604051601f8201601f19908116603f011681016001600160401b03811182821017156102a4576102a46101cb565b6040528181528282016020018810156102bc57600080fd5b6102cd8260208301602086016101e1565b94506102de91505060208501610205565b6040949094015192959394509192915050565b600181811c9082168061030557607f821691505b60208210810361032557634e487b7160e01b600052602260045260246000fd5b50919050565b601f82111561037557806000526020600020601f840160051c810160208510156103525750805b601f840160051c820191505b81811015610372576000815560010161035e565b50505b505050565b81516001600160401b03811115610393576103936101cb565b6103a7816103a184546102f1565b8461032b565b6020601f8211600181146103db57600083156103c35750848201515b600019600385901b1c1916600184901b178455610372565b600084815260208120601f198516915b8281101561040b57878501518255602094850194600190920191016103eb565b50848210156104295786840151600019600387901b60f8161c191681555b50505050600190811b01905550565b60208152600082518060208401526104578160408501602087016101e1565b601f01601f19169190910160400192915050565b805160208083015191908110156103255760001960209190910360031b1b16919050565b60805160a05160c05160e05161010051610120516101405161016051610180516112966104ff6000396000610aa8015260006109820152600061095001526000610ad601526000610a8201526000610a5a015260006109b5015260006109df01526000610a0901526112966000f3fe608060405234801561001057600080fd5b50600436106100625760003560e01c806308a1d3a81461006757806324dab52b146100a15780635437988d146100b65780637f21f6e7146100c957806384b0196e146100fe578063c2e5482614610119575b600080fd5b61008e7ff34aee2ebf05511691143b0159be32da81dbaae6015edfcf4ab010b71024674e81565b6040519081526020015b60405180910390f35b6100b46100af366004610e07565b610140565b005b6100b46100c4366004610e97565b61050b565b6100dc6100d7366004610ed2565b610544565b6040805182518152602080840151908201529181015190820152606001610098565b61010661082e565b6040516100989796959493929190610f67565b61008e7f6a99540966dcde10684638e9061f4cf8a978c1355e7a11d9c8dee737641df51981565b60006102717ff34aee2ebf05511691143b0159be32da81dbaae6015edfcf4ab010b71024674e61017d61017836889003880188610fff565b610874565b61019261017836899003890160608a01610fff565b6101a7610178368a90038a0160c08b01610fff565b6101bd610178368b90038b016101208c01610fff565b6101d3610178368c90038c016101808d01610fff565b6101e56102008c016101e08d0161106b565b6101f76102208d016102008e0161109d565b6040805160208101999099528801969096526060870194909452608086019290925260a085015260c084015260ff1660e08301526001600160801b031661010082015261022086013561012082015261024086013561014082015261016001604051602081830303815290604052805190602001206108ec565b905060006102b58285858080601f01602080910402602001604051908101604052809392919081815260200183838082843760009201919091525061091f92505050565b6003549091506001600160a01b0380831691161461030b5760405162461bcd60e51b815260206004820152600e60248201526d34b73b30b634b21039b4b3b732b960911b60448201526064015b60405180910390fd5b6001600160a01b0381166103615760405162461bcd60e51b815260206004820152601860248201527f45434453413a20696e76616c6964207369676e617475726500000000000000006044820152606401610302565b61024085013560009081526004602081815260409283902083516101808101855281546101208201908152600183015461014083015260028301546101608301528152845160608181018752600384015482529483015481850152600583015481870152818401528451808501865260068301548152600783015481850152600883015481870152818601528451808501865260098301548152600a83015481850152600b830154818701528482015284519384018552600c8201548452600d82015492840192909252600e810154938301939093526080810191909152600f82015460ff811660a08301526001600160801b03610100918290041660c08301819052601084015460e0840152601190930154908201529061048b6102208801610200890161109d565b6001600160801b0316116104e15760405162461bcd60e51b815260206004820152601960248201527f657374696d6174696f6e20616c726561647920657869737473000000000000006044820152606401610302565b6102408601356000908152600460205260409020869061050182826110d4565b5050505050505050565b6002546001600160a01b0316331461052257600080fd5b600380546001600160a01b0319166001600160a01b0392909216919091179055565b61056860405180606001604052806000815260200160008152602001600081525090565b60008481526004602081815260409283902083516101808101855281546101208201908152600183015461014083015260028301546101608301528152845160608181018752600384015482529483015481850152600583015481870152818401528451808501865260068301548152600783015481850152600883015481870152818601528451808501865260098301548152600a83015481850152600b830154818701528482015284519384018552600c8201548452600d82015492840192909252600e810154938301939093526080810191909152600f82015460ff811660a08301526001600160801b03610100918290041660c08301819052601084015460e084015260119093015490820152906106c65760405162461bcd60e51b815260206004820152601a60248201527f6e6f20657374696d6174696f6e7320666f72206e6574776f726b0000000000006044820152606401610302565b8060e00151421115610729578367ffffffffffffffff168160e00151426106ed91906111ef565b106107245760405162461bcd60e51b81526020600482015260076024820152661d1a5b595bdd5d60ca1b6044820152606401610302565b61077b565b8367ffffffffffffffff16428260e0015161074491906111ef565b1061077b5760405162461bcd60e51b81526020600482015260076024820152661d1a5b595bdd5d60ca1b6044820152606401610302565b8260ff1660630361079157608001519050610827565b8260ff16605f036107a757606001519050610827565b8260ff16605a036107bd57604001519050610827565b8260ff166050036107d357602001519050610827565b8260ff166046036107e657519050610827565b60405162461bcd60e51b81526020600482015260166024820152751c5d585b9d1a5b19481b9bdd081cdd5c1c1bdc9d195960521b6044820152606401610302565b9392505050565b600060608060008060006060610842610949565b61084a61097b565b60408051600080825260208201909252600f60f81b9b939a50919850469750309650945092509050565b60007f6a99540966dcde10684638e9061f4cf8a978c1355e7a11d9c8dee737641df5198260000151836020015184604001516040516020016108cf949392919093845260208401929092526040830152606082015260800190565b604051602081830303815290604052805190602001209050919050565b60006109196108f96109a8565b8360405161190160f01b8152600281019290925260228201526042902090565b92915050565b60008060008061092f8686610b1c565b92509250925061093f8282610b69565b5090949350505050565b60606109767f00000000000000000000000000000000000000000000000000000000000000006000610c26565b905090565b60606109767f00000000000000000000000000000000000000000000000000000000000000006001610c26565b6000306001600160a01b037f000000000000000000000000000000000000000000000000000000000000000016148015610a0157507f000000000000000000000000000000000000000000000000000000000000000046145b15610a2b57507f000000000000000000000000000000000000000000000000000000000000000090565b610976604080517f8b73c3c69bb8fe3d512ecc4cf759cc79239f7b179b0ffacaa9a75d522b39400f60208201527f0000000000000000000000000000000000000000000000000000000000000000918101919091527f000000000000000000000000000000000000000000000000000000000000000060608201527f000000000000000000000000000000000000000000000000000000000000000060808201526001600160a01b037f00000000000000000000000000000000000000000000000000000000000000001660a082015260009060c00160405160208183030381529060405280519060200120905090565b60008060008351604103610b565760208401516040850151606086015160001a610b4888828585610cd1565b955095509550505050610b62565b50508151600091506002905b9250925092565b6000826003811115610b7d57610b7d611210565b03610b86575050565b6001826003811115610b9a57610b9a611210565b03610bb85760405163f645eedf60e01b815260040160405180910390fd5b6002826003811115610bcc57610bcc611210565b03610bed5760405163fce698f760e01b815260048101829052602401610302565b6003826003811115610c0157610c01611210565b03610c22576040516335e2f38360e21b815260048101829052602401610302565b5050565b606060ff8314610c4057610c3983610da0565b9050610919565b818054610c4c90611226565b80601f0160208091040260200160405190810160405280929190818152602001828054610c7890611226565b8015610cc55780601f10610c9a57610100808354040283529160200191610cc5565b820191906000526020600020905b815481529060010190602001808311610ca857829003601f168201915b50505050509050610919565b600080807f7fffffffffffffffffffffffffffffff5d576e7357a4501ddfe92f46681b20a0841115610d0c5750600091506003905082610d96565b604080516000808252602082018084528a905260ff891692820192909252606081018790526080810186905260019060a0016020604051602081039080840390855afa158015610d60573d6000803e3d6000fd5b5050604051601f1901519150506001600160a01b038116610d8c57506000925060019150829050610d96565b9250600091508190505b9450945094915050565b60606000610dad83610ddf565b604080516020808252818301909252919250600091906020820181803683375050509182525060208101929092525090565b600060ff8216601f81111561091957604051632cd44ac360e21b815260040160405180910390fd5b6000806000838503610280811215610e1e57600080fd5b610260811215610e2d57600080fd5b5083925061026084013567ffffffffffffffff811115610e4c57600080fd5b8401601f81018613610e5d57600080fd5b803567ffffffffffffffff811115610e7457600080fd5b866020828401011115610e8657600080fd5b939660209190910195509293505050565b600060208284031215610ea957600080fd5b81356001600160a01b038116811461082757600080fd5b60ff81168114610ecf57600080fd5b50565b600080600060608486031215610ee757600080fd5b83359250602084013567ffffffffffffffff81168114610f0657600080fd5b91506040840135610f1681610ec0565b809150509250925092565b6000815180845260005b81811015610f4757602081850181015186830182015201610f2b565b506000602082860101526020601f19601f83011685010191505092915050565b60ff60f81b8816815260e060208201526000610f8660e0830189610f21565b8281036040840152610f988189610f21565b606084018890526001600160a01b038716608085015260a0840186905283810360c08501528451808252602080870193509091019060005b81811015610fee578351835260209384019390920191600101610fd0565b50909b9a5050505050505050505050565b6000606082840312801561101257600080fd5b600090506040516060810181811067ffffffffffffffff8211171561104557634e487b7160e01b83526041600452602483fd5b604090815284358252602080860135908301529384013593810193909352509092915050565b60006020828403121561107d57600080fd5b813561082781610ec0565b6001600160801b0381168114610ecf57600080fd5b6000602082840312156110af57600080fd5b813561082781611088565b6000813561091981610ec0565b6000813561091981611088565b813581556020820135600182015560408201356002820155606082013560038201556080820135600482015560a0820135600582015560c0820135600682015560e0820135600782015561010082013560088201556101208201356009820155610140820135600a820155610160820135600b820155610180820135600c8201556101a0820135600d8201556101c0820135600e820155600f810161119061117f6101e085016110ba565b825460ff191660ff91909116178255565b6111d46111a061020085016110c7565b825470ffffffffffffffffffffffffffffffff00191660089190911b70ffffffffffffffffffffffffffffffff0016178255565b50610220820135601082015561024090910135601190910155565b8181038181111561091957634e487b7160e01b600052601160045260246000fd5b634e487b7160e01b600052602160045260246000fd5b600181811c9082168061123a57607f821691505b60208210810361125a57634e487b7160e01b600052602260045260246000fd5b5091905056fea26469706673582212201e02e57241096791dcefc1e5a59d65be7f7b9b4c82771875aed078a3d027fc4e64736f6c634300081a0033",
    "linkReferences": {}
  },
  "methodIdentifiers": {
    "ESTIMATION_TYPEHASH()": "08a1d3a8",
    "ESTIMATION_VALUES_TYPEHASH()": "c2e54826",
    "eip712Domain()": "84b0196e",
    "getGasEstimationQuantile(uint256,uint64,uint8)": "7f21f6e7",
    "setEstimation(((uint256,uint256,uint256),(uint256,uint256,uint256),(uint256,uint256,uint256),(uint256,uint256,uint256),(uint256,uint256,uint256),uint8,uint128,uint256,uint256),bytes)": "24dab52b",
    "setVerifier(address)": "5437988d"
  },
  "id": 36
}