{
  "abi": [
    {
      "type": "constructor",
      "inputs": [],
      "stateMutability": "nonpayable"
    },
    {
      "type": "function",
      "name": "get",
      "inputs": [
        {
          "name": "systemid",
          "type": "uint8",
          "internalType": "uint8"
        },
        {
          "name": "cid",
          "type": "uint64",
          "internalType": "uint64"
        },
        {
          "name": "typ",
          "type": "uint16",
          "internalType": "uint16"
        }
      ],
      "outputs": [
        {
          "name": "value",
          "type": "uint256",
          "internalType": "uint256"
        },
        {
          "name": "height",
          "type": "uint64",
          "internalType": "uint64"
        },
        {
          "name": "timestamp",
          "type": "uint48",
          "internalType": "uint48"
        }
      ],
      "stateMutability": "view"
    },
    {
      "type": "function",
      "name": "getInTime",
      "inputs": [
        {
          "name": "systemid",
          "type": "uint8",
          "internalType": "uint8"
        },
        {
          "name": "cid",
          "type": "uint64",
          "internalType": "uint64"
        },
        {
          "name": "typ",
          "type": "uint16",
          "internalType": "uint16"
        },
        {
          "name": "tin",
          "type": "uint16",
          "internalType": "uint16"
        }
      ],
      "outputs": [
        {
          "name": "value",
          "type": "uint256",
          "internalType": "uint256"
        },
        {
          "name": "height",
          "type": "uint64",
          "internalType": "uint64"
        },
        {
          "name": "timestamp",
          "type": "uint48",
          "internalType": "uint48"
        }
      ],
      "stateMutability": "view"
    },
    {
      "type": "function",
      "name": "getRecord",
      "inputs": [
        {
          "name": "systemid",
          "type": "uint8",
          "internalType": "uint8"
        },
        {
          "name": "cid",
          "type": "uint64",
          "internalType": "uint64"
        },
        {
          "name": "typ",
          "type": "uint16",
          "internalType": "uint16"
        }
      ],
      "outputs": [
        {
          "name": "r",
          "type": "tuple",
          "internalType": "struct Oracle.Record",
          "components": [
            {
              "name": "height",
              "type": "uint64",
              "internalType": "uint64"
            },
            {
              "name": "timestamp",
              "type": "uint48",
              "internalType": "uint48"
            },
            {
              "name": "value",
              "type": "uint240",
              "internalType": "uint240"
            }
          ]
        }
      ],
      "stateMutability": "view"
    },
    {
      "type": "function",
      "name": "getValue",
      "inputs": [
        {
          "name": "systemid",
          "type": "uint8",
          "internalType": "uint8"
        },
        {
          "name": "cid",
          "type": "uint64",
          "internalType": "uint64"
        },
        {
          "name": "typ",
          "type": "uint16",
          "internalType": "uint16"
        }
      ],
      "outputs": [
        {
          "name": "value",
          "type": "uint256",
          "internalType": "uint256"
        }
      ],
      "stateMutability": "view"
    },
    {
      "type": "function",
      "name": "setSignerAddress",
      "inputs": [
        {
          "name": "s",
          "type": "address",
          "internalType": "address"
        }
      ],
      "outputs": [],
      "stateMutability": "nonpayable"
    },
    {
      "type": "function",
      "name": "storeValues",
      "inputs": [
        {
          "name": "dat",
          "type": "bytes",
          "internalType": "bytes"
        }
      ],
      "outputs": [],
      "stateMutability": "nonpayable"
    },
    {
      "type": "function",
      "name": "transferOwnership",
      "inputs": [
        {
          "name": "o",
          "type": "address",
          "internalType": "address"
        }
      ],
      "outputs": [],
      "stateMutability": "nonpayable"
    }
  ],
  "bytecode": {
    "object": "0x6080604052348015600e575f80fd5b505f80546001600160a01b0319163317905561093f8061002d5f395ff3fe608060405234801561000f575f80fd5b506004361061007a575f3560e01c80631fb40911116100585780631fb4091114610134578063db66b49a14610147578063f2fde38b14610211578063fbdf8c0814610224575f80fd5b80630385389d1461007e578063046dc1661461010c578063105d538914610121575b5f80fd5b6100dc61008c36600461072e565b604092831b9190910160101b016001600160581b03165f908152600260205220600181015490546001600160f01b03909116916001600160401b03821691600160401b900465ffffffffffff1690565b604080519384526001600160401b03909216602084015265ffffffffffff16908201526060015b60405180910390f35b61011f61011a36600461076e565b610270565b005b61011f61012f3660046107af565b6102ab565b6100dc61014236600461085f565b61047d565b6101d561015536600461072e565b60408051606080820183525f808352602080840182905292840181905295831b9490940160101b929092016001600160581b0316845260028252928390208351928301845280546001600160401b0381168452600160401b900465ffffffffffff1691830191909152600101546001600160f01b03169181019190915290565b6040805182516001600160401b0316815260208084015165ffffffffffff1690820152918101516001600160f01b031690820152606001610103565b61011f61021f36600461076e565b610512565b61026261023236600461072e565b6001600160581b03604093841b9290920160101b01165f908152600260205220600101546001600160f01b031690565b604051908152602001610103565b5f546001600160a01b03163314610289576102896108b0565b600180546001600160a01b0319166001600160a01b0392909216919091179055565b602081015f8080806102de855160c081901c91603882901c62010000600160c81b031691609081901c9160089190911c90565b60015492975092955093509091505f90819081906103089087908a906001600160a01b031661054c565b8561ffff168160ff16101561047257602081028901604001519250600183901a915061033487836106e3565b6001600160581b0381165f9081526002602052604090208054919850906001600160401b03808716911610801561037e5750805465ffffffffffff808816600160401b9092041611155b1561045f576040518060600160405280866001600160401b031681526020018765ffffffffffff168152602001856001600160f01b031681525060025f8a6001600160581b03166001600160581b031681526020019081526020015f205f820151815f015f6101000a8154816001600160401b0302191690836001600160401b031602179055506020820151815f0160086101000a81548165ffffffffffff021916908365ffffffffffff1602179055506040820151816001015f6101000a8154816001600160f01b0302191690836001600160f01b031602179055509050505b81610469816108d8565b92505050610308565b505050505050505050565b604084811b840160101b83016001600160581b03165f9081526002602052908120819081906104b061ffff8616426108f6565b8154600160401b900465ffffffffffff1611156104fd57600181015490546001600160f01b0390911693506001600160401b0381169250600160401b900465ffffffffffff169050610508565b5f805f935093509350505b9450945094915050565b5f546001600160a01b0316331461052b5761052b6108b0565b5f80546001600160a01b0319166001600160a01b0392909216919091179055565b6020808402808201842093019081015160408201516060909201805190949192915f9190911a90601b821480159061058857508160ff16601c14155b156105d35760405162461bcd60e51b8152602060048201526016602482015275696e76616c6964207369676e6572207620706172616d60501b60448201526064015b60405180910390fd5b604080515f8082526020820180845284905260ff851692820192909252606081018690526080810185905260019060a0016020604051602081039080840390855afa158015610624573d5f803e3d5ffd5b5050604051601f1901519150506001600160a01b0381166106875760405162461bcd60e51b815260206004820152601860248201527f45434453413a20696e76616c6964207369676e6174757265000000000000000060448201526064016105ca565b806001600160a01b0316866001600160a01b0316146106d95760405162461bcd60e51b815260206004820152600e60248201526d34b73b30b634b21039b4b3b732b960911b60448201526064016105ca565b5050505050505050565b61ffff19821681015b92915050565b803560ff81168114610702575f80fd5b919050565b80356001600160401b0381168114610702575f80fd5b803561ffff81168114610702575f80fd5b5f805f60608486031215610740575f80fd5b610749846106f2565b925061075760208501610707565b91506107656040850161071d565b90509250925092565b5f6020828403121561077e575f80fd5b81356001600160a01b0381168114610794575f80fd5b9392505050565b634e487b7160e01b5f52604160045260245ffd5b5f602082840312156107bf575f80fd5b81356001600160401b038111156107d4575f80fd5b8201601f810184136107e4575f80fd5b80356001600160401b038111156107fd576107fd61079b565b604051601f8201601f19908116603f011681016001600160401b038111828210171561082b5761082b61079b565b604052818152828201602001861015610842575f80fd5b816020840160208301375f91810160200191909152949350505050565b5f805f8060808587031215610872575f80fd5b61087b856106f2565b935061088960208601610707565b92506108976040860161071d565b91506108a56060860161071d565b905092959194509250565b634e487b7160e01b5f52600160045260245ffd5b634e487b7160e01b5f52601160045260245ffd5b5f60ff821660ff81036108ed576108ed6108c4565b60010192915050565b818103818111156106ec576106ec6108c456fea26469706673582212208a687ed6b101262187405d60b4e062f75844f89cb6d246559ff9031c4efbcc5f64736f6c634300081a0033",
    "linkReferences": {}
  },
  "methodIdentifiers": {
    "get(uint8,uint64,uint16)": "0385389d",
    "getInTime(uint8,uint64,uint16,uint16)": "1fb40911",
    "getRecord(uint8,uint64,uint16)": "db66b49a",
    "getValue(uint8,uint64,uint16)": "fbdf8c08",
    "setSignerAddress(address)": "046dc166",
    "storeValues(bytes)": "105d5389",
    "transferOwnership(address)": "f2fde38b"
  },
  "id": 24
}