{
  "abi": [
    {
      "type": "constructor",
      "inputs": [],
      "stateMutability": "nonpayable"
    },
    {
      "type": "function",
      "name": "get",
      "inputs": [
        {
          "name": "systemid",
          "type": "uint8",
          "internalType": "uint8"
        },
        {
          "name": "cid",
          "type": "uint64",
          "internalType": "uint64"
        },
        {
          "name": "typ",
          "type": "uint16",
          "internalType": "uint16"
        }
      ],
      "outputs": [
        {
          "name": "value",
          "type": "uint256",
          "internalType": "uint256"
        },
        {
          "name": "height",
          "type": "uint64",
          "internalType": "uint64"
        },
        {
          "name": "timestamp",
          "type": "uint48",
          "internalType": "uint48"
        }
      ],
      "stateMutability": "view"
    },
    {
      "type": "function",
      "name": "getInTime",
      "inputs": [
        {
          "name": "systemid",
          "type": "uint8",
          "internalType": "uint8"
        },
        {
          "name": "cid",
          "type": "uint64",
          "internalType": "uint64"
        },
        {
          "name": "typ",
          "type": "uint16",
          "internalType": "uint16"
        },
        {
          "name": "tin",
          "type": "uint48",
          "internalType": "uint48"
        }
      ],
      "outputs": [
        {
          "name": "value",
          "type": "uint256",
          "internalType": "uint256"
        },
        {
          "name": "height",
          "type": "uint64",
          "internalType": "uint64"
        },
        {
          "name": "timestamp",
          "type": "uint48",
          "internalType": "uint48"
        }
      ],
      "stateMutability": "view"
    },
    {
      "type": "function",
      "name": "getRecord",
      "inputs": [
        {
          "name": "systemid",
          "type": "uint8",
          "internalType": "uint8"
        },
        {
          "name": "cid",
          "type": "uint64",
          "internalType": "uint64"
        },
        {
          "name": "typ",
          "type": "uint16",
          "internalType": "uint16"
        }
      ],
      "outputs": [
        {
          "name": "r",
          "type": "tuple",
          "internalType": "struct Oracle.Record",
          "components": [
            {
              "name": "height",
              "type": "uint64",
              "internalType": "uint64"
            },
            {
              "name": "timestamp",
              "type": "uint48",
              "internalType": "uint48"
            },
            {
              "name": "value",
              "type": "uint240",
              "internalType": "uint240"
            }
          ]
        }
      ],
      "stateMutability": "view"
    },
    {
      "type": "function",
      "name": "getValue",
      "inputs": [
        {
          "name": "systemid",
          "type": "uint8",
          "internalType": "uint8"
        },
        {
          "name": "cid",
          "type": "uint64",
          "internalType": "uint64"
        },
        {
          "name": "typ",
          "type": "uint16",
          "internalType": "uint16"
        }
      ],
      "outputs": [
        {
          "name": "value",
          "type": "uint256",
          "internalType": "uint256"
        }
      ],
      "stateMutability": "view"
    },
    {
      "type": "function",
      "name": "setSignerAddress",
      "inputs": [
        {
          "name": "s",
          "type": "address",
          "internalType": "address"
        }
      ],
      "outputs": [],
      "stateMutability": "nonpayable"
    },
    {
      "type": "function",
      "name": "storeValues",
      "inputs": [
        {
          "name": "dat",
          "type": "bytes",
          "internalType": "bytes"
        }
      ],
      "outputs": [],
      "stateMutability": "nonpayable"
    },
    {
      "type": "function",
      "name": "transferOwnership",
      "inputs": [
        {
          "name": "o",
          "type": "address",
          "internalType": "address"
        }
      ],
      "outputs": [],
      "stateMutability": "nonpayable"
    }
  ],
  "bytecode": {
    "object": "0x6080604052348015600f57600080fd5b50600080546001600160a01b031916331790556109b1806100316000396000f3fe608060405234801561001057600080fd5b506004361061007d5760003560e01c8063790939781161005b5780637909397814610139578063db66b49a1461014c578063f2fde38b14610217578063fbdf8c081461022a57600080fd5b80630385389d14610082578063046dc16614610111578063105d538914610126575b600080fd5b6100e1610090366004610766565b604092831b9190910160101b016001600160581b03166000908152600260205220600181015490546001600160f01b03909116916001600160401b03821691600160401b900465ffffffffffff1690565b604080519384526001600160401b03909216602084015265ffffffffffff16908201526060015b60405180910390f35b61012461011f3660046107a9565b610277565b005b6101246101343660046107ef565b6102b3565b6100e16101473660046108a5565b610498565b6101db61015a366004610766565b60408051606080820183526000808352602080840182905292840181905295831b9490940160101b929092016001600160581b0316845260028252928390208351928301845280546001600160401b0381168452600160401b900465ffffffffffff1691830191909152600101546001600160f01b03169181019190915290565b6040805182516001600160401b0316815260208084015165ffffffffffff1690820152918101516001600160f01b031690820152606001610108565b6101246102253660046107a9565b610541565b610269610238366004610766565b6001600160581b03604093841b9290920160101b01166000908152600260205220600101546001600160f01b031690565b604051908152602001610108565b6000546001600160a01b0316331461029157610291610906565b600180546001600160a01b0319166001600160a01b0392909216919091179055565b6020810160008080806102e7855160c081901c91603882901c62010000600160c81b031691609081901c9160089190911c90565b6001549297509295509350909150600090819081906103129087908a906001600160a01b031661057d565b8561ffff168160ff16101561048d57602081028901604001519250600183901a600084901a60081b0191506103478783610718565b6001600160581b03811660009081526002602052604090208054919850906001600160401b0380871691161080156103925750805465ffffffffffff808816600160401b9092041611155b1561047a576040518060600160405280866001600160401b031681526020018765ffffffffffff168152602001856001600160f01b0316815250600260008a6001600160581b03166001600160581b0316815260200190815260200160002060008201518160000160006101000a8154816001600160401b0302191690836001600160401b0316021790555060208201518160000160086101000a81548165ffffffffffff021916908365ffffffffffff16021790555060408201518160010160006101000a8154816001600160f01b0302191690836001600160f01b031602179055509050505b8161048481610932565b92505050610312565b505050505050505050565b604084811b840160101b83016001600160581b0316600090815260026020529081208190819065ffffffffffff85166104d3426103e8610951565b6104dd9190610968565b8154600160401b900465ffffffffffff16111561052a57600181015490546001600160f01b0390911693506001600160401b0381169250600160401b900465ffffffffffff169050610537565b6000806000935093509350505b9450945094915050565b6000546001600160a01b0316331461055b5761055b610906565b600080546001600160a01b0319166001600160a01b0392909216919091179055565b60208084028082018420930190810151604082015160609092018051909491929160009190911a90601b82148015906105ba57508160ff16601c14155b156106055760405162461bcd60e51b8152602060048201526016602482015275696e76616c6964207369676e6572207620706172616d60501b60448201526064015b60405180910390fd5b6040805160008082526020820180845284905260ff851692820192909252606081018690526080810185905260019060a0016020604051602081039080840390855afa158015610659573d6000803e3d6000fd5b5050604051601f1901519150506001600160a01b0381166106bc5760405162461bcd60e51b815260206004820152601860248201527f45434453413a20696e76616c6964207369676e6174757265000000000000000060448201526064016105fc565b806001600160a01b0316866001600160a01b03161461070e5760405162461bcd60e51b815260206004820152600e60248201526d34b73b30b634b21039b4b3b732b960911b60448201526064016105fc565b5050505050505050565b61ffff19821681015b92915050565b803560ff8116811461073857600080fd5b919050565b80356001600160401b038116811461073857600080fd5b803561ffff8116811461073857600080fd5b60008060006060848603121561077b57600080fd5b61078484610727565b92506107926020850161073d565b91506107a060408501610754565b90509250925092565b6000602082840312156107bb57600080fd5b81356001600160a01b03811681146107d257600080fd5b9392505050565b634e487b7160e01b600052604160045260246000fd5b60006020828403121561080157600080fd5b81356001600160401b0381111561081757600080fd5b8201601f8101841361082857600080fd5b80356001600160401b03811115610841576108416107d9565b604051601f8201601f19908116603f011681016001600160401b038111828210171561086f5761086f6107d9565b60405281815282820160200186101561088757600080fd5b81602084016020830137600091810160200191909152949350505050565b600080600080608085870312156108bb57600080fd5b6108c485610727565b93506108d26020860161073d565b92506108e060408601610754565b9150606085013565ffffffffffff811681146108fb57600080fd5b939692955090935050565b634e487b7160e01b600052600160045260246000fd5b634e487b7160e01b600052601160045260246000fd5b600060ff821660ff81036109485761094861091c565b60010192915050565b80820281158282048414176107215761072161091c565b818103818111156107215761072161091c56fea26469706673582212201acba07c3c713809eb96f171c537a60b5e08357678de099b79a3bd167220129764736f6c634300081a0033",
    "linkReferences": {}
  },
  "methodIdentifiers": {
    "get(uint8,uint64,uint16)": "0385389d",
    "getInTime(uint8,uint64,uint16,uint48)": "79093978",
    "getRecord(uint8,uint64,uint16)": "db66b49a",
    "getValue(uint8,uint64,uint16)": "fbdf8c08",
    "setSignerAddress(address)": "046dc166",
    "storeValues(bytes)": "105d5389",
    "transferOwnership(address)": "f2fde38b"
  },
  "id": 0
}