{
  "abi": [
    {
      "type": "constructor",
      "inputs": [],
      "stateMutability": "nonpayable"
    },
    {
      "type": "function",
      "name": "getEstimation",
      "inputs": [
        {
          "name": "chainid",
          "type": "uint256",
          "internalType": "uint256"
        }
      ],
      "outputs": [
        {
          "name": "e",
          "type": "tuple",
          "internalType": "struct Oracle.Estimation",
          "components": [
            {
              "name": "Q70",
              "type": "tuple",
              "internalType": "struct Oracle.EstimationValues",
              "components": [
                {
                  "name": "gasPrice",
                  "type": "uint256",
                  "internalType": "uint256"
                },
                {
                  "name": "maxPriorityFeePerGas",
                  "type": "uint256",
                  "internalType": "uint256"
                },
                {
                  "name": "maxFeePerGas",
                  "type": "uint256",
                  "internalType": "uint256"
                }
              ]
            },
            {
              "name": "Q80",
              "type": "tuple",
              "internalType": "struct Oracle.EstimationValues",
              "components": [
                {
                  "name": "gasPrice",
                  "type": "uint256",
                  "internalType": "uint256"
                },
                {
                  "name": "maxPriorityFeePerGas",
                  "type": "uint256",
                  "internalType": "uint256"
                },
                {
                  "name": "maxFeePerGas",
                  "type": "uint256",
                  "internalType": "uint256"
                }
              ]
            },
            {
              "name": "Q90",
              "type": "tuple",
              "internalType": "struct Oracle.EstimationValues",
              "components": [
                {
                  "name": "gasPrice",
                  "type": "uint256",
                  "internalType": "uint256"
                },
                {
                  "name": "maxPriorityFeePerGas",
                  "type": "uint256",
                  "internalType": "uint256"
                },
                {
                  "name": "maxFeePerGas",
                  "type": "uint256",
                  "internalType": "uint256"
                }
              ]
            },
            {
              "name": "Q95",
              "type": "tuple",
              "internalType": "struct Oracle.EstimationValues",
              "components": [
                {
                  "name": "gasPrice",
                  "type": "uint256",
                  "internalType": "uint256"
                },
                {
                  "name": "maxPriorityFeePerGas",
                  "type": "uint256",
                  "internalType": "uint256"
                },
                {
                  "name": "maxFeePerGas",
                  "type": "uint256",
                  "internalType": "uint256"
                }
              ]
            },
            {
              "name": "Q99",
              "type": "tuple",
              "internalType": "struct Oracle.EstimationValues",
              "components": [
                {
                  "name": "gasPrice",
                  "type": "uint256",
                  "internalType": "uint256"
                },
                {
                  "name": "maxPriorityFeePerGas",
                  "type": "uint256",
                  "internalType": "uint256"
                },
                {
                  "name": "maxFeePerGas",
                  "type": "uint256",
                  "internalType": "uint256"
                }
              ]
            },
            {
              "name": "precision",
              "type": "uint8",
              "internalType": "uint8"
            },
            {
              "name": "height",
              "type": "uint128",
              "internalType": "uint128"
            },
            {
              "name": "timestamp",
              "type": "uint256",
              "internalType": "uint256"
            },
            {
              "name": "chainid",
              "type": "uint256",
              "internalType": "uint256"
            }
          ]
        },
        {
          "name": "signature",
          "type": "bytes",
          "internalType": "bytes"
        }
      ],
      "stateMutability": "view"
    },
    {
      "type": "function",
      "name": "owner",
      "inputs": [],
      "outputs": [
        {
          "name": "",
          "type": "address",
          "internalType": "address"
        }
      ],
      "stateMutability": "view"
    },
    {
      "type": "function",
      "name": "renounceOwnership",
      "inputs": [],
      "outputs": [],
      "stateMutability": "nonpayable"
    },
    {
      "type": "function",
      "name": "setEstimation",
      "inputs": [
        {
          "name": "e",
          "type": "tuple",
          "internalType": "struct Oracle.Estimation",
          "components": [
            {
              "name": "Q70",
              "type": "tuple",
              "internalType": "struct Oracle.EstimationValues",
              "components": [
                {
                  "name": "gasPrice",
                  "type": "uint256",
                  "internalType": "uint256"
                },
                {
                  "name": "maxPriorityFeePerGas",
                  "type": "uint256",
                  "internalType": "uint256"
                },
                {
                  "name": "maxFeePerGas",
                  "type": "uint256",
                  "internalType": "uint256"
                }
              ]
            },
            {
              "name": "Q80",
              "type": "tuple",
              "internalType": "struct Oracle.EstimationValues",
              "components": [
                {
                  "name": "gasPrice",
                  "type": "uint256",
                  "internalType": "uint256"
                },
                {
                  "name": "maxPriorityFeePerGas",
                  "type": "uint256",
                  "internalType": "uint256"
                },
                {
                  "name": "maxFeePerGas",
                  "type": "uint256",
                  "internalType": "uint256"
                }
              ]
            },
            {
              "name": "Q90",
              "type": "tuple",
              "internalType": "struct Oracle.EstimationValues",
              "components": [
                {
                  "name": "gasPrice",
                  "type": "uint256",
                  "internalType": "uint256"
                },
                {
                  "name": "maxPriorityFeePerGas",
                  "type": "uint256",
                  "internalType": "uint256"
                },
                {
                  "name": "maxFeePerGas",
                  "type": "uint256",
                  "internalType": "uint256"
                }
              ]
            },
            {
              "name": "Q95",
              "type": "tuple",
              "internalType": "struct Oracle.EstimationValues",
              "components": [
                {
                  "name": "gasPrice",
                  "type": "uint256",
                  "internalType": "uint256"
                },
                {
                  "name": "maxPriorityFeePerGas",
                  "type": "uint256",
                  "internalType": "uint256"
                },
                {
                  "name": "maxFeePerGas",
                  "type": "uint256",
                  "internalType": "uint256"
                }
              ]
            },
            {
              "name": "Q99",
              "type": "tuple",
              "internalType": "struct Oracle.EstimationValues",
              "components": [
                {
                  "name": "gasPrice",
                  "type": "uint256",
                  "internalType": "uint256"
                },
                {
                  "name": "maxPriorityFeePerGas",
                  "type": "uint256",
                  "internalType": "uint256"
                },
                {
                  "name": "maxFeePerGas",
                  "type": "uint256",
                  "internalType": "uint256"
                }
              ]
            },
            {
              "name": "precision",
              "type": "uint8",
              "internalType": "uint8"
            },
            {
              "name": "height",
              "type": "uint128",
              "internalType": "uint128"
            },
            {
              "name": "timestamp",
              "type": "uint256",
              "internalType": "uint256"
            },
            {
              "name": "chainid",
              "type": "uint256",
              "internalType": "uint256"
            }
          ]
        },
        {
          "name": "signature",
          "type": "bytes",
          "internalType": "bytes"
        }
      ],
      "outputs": [],
      "stateMutability": "nonpayable"
    },
    {
      "type": "function",
      "name": "transferOwnership",
      "inputs": [
        {
          "name": "newOwner",
          "type": "address",
          "internalType": "address"
        }
      ],
      "outputs": [],
      "stateMutability": "nonpayable"
    },
    {
      "type": "event",
      "name": "OwnershipTransferred",
      "inputs": [
        {
          "name": "previousOwner",
          "type": "address",
          "indexed": true,
          "internalType": "address"
        },
        {
          "name": "newOwner",
          "type": "address",
          "indexed": true,
          "internalType": "address"
        }
      ],
      "anonymous": false
    },
    {
      "type": "error",
      "name": "OwnableInvalidOwner",
      "inputs": [
        {
          "name": "owner",
          "type": "address",
          "internalType": "address"
        }
      ]
    },
    {
      "type": "error",
      "name": "OwnableUnauthorizedAccount",
      "inputs": [
        {
          "name": "account",
          "type": "address",
          "internalType": "address"
        }
      ]
    }
  ],
  "bytecode": {
    "object": "0x6080604052348015600f57600080fd5b503380603557604051631e4fbdf760e01b81526000600482015260240160405180910390fd5b603c816041565b506091565b600080546001600160a01b038381166001600160a01b0319831681178455604051919092169283917f8be0079c531659141344cd1fd0a4f28419497f9722a3daafe3b4186f6b6457e09190a35050565b610dac806100a06000396000f3fe608060405234801561001057600080fd5b50600436106100575760003560e01c806324dab52b1461005c578063715018a61461007157806384509760146100795780638da5cb5b146100a3578063f2fde38b146100be575b600080fd5b61006f61006a366004610870565b6100d1565b005b61006f61047b565b61008c610087366004610900565b61048f565b60405161009a92919061095f565b60405180910390f35b6000546040516001600160a01b03909116815260200161009a565b61006f6100cc366004610a68565b6106bf565b6100d96106fd565b610240830135600090815260016020818152604080842081516101c081018352815461016082019081529482015461018082015260028201546101a08201528083019485528251606081810185526003840154825260048401548287015260058401548286015280830191909152835180820185526006840154815260078401548187015260088401548186015260808301528351808201855260098401548152600a84015481870152600b8401548186015260a083015283519081018452600c8301548152600d83015481860152600e8301549381019390935260c0810192909252600f81015460ff811660e08401526001600160801b036101009182900416908301526010810154610120830152601181015461014083015292815260128301805491939284019161020c90610a98565b80601f016020809104026020016040519081016040528092919081815260200182805461023890610a98565b80156102855780601f1061025a57610100808354040283529160200191610285565b820191906000526020600020905b81548152906001019060200180831161026857829003601f168201915b505050919092525050815160c00151919250506001600160801b03166102b361022086016102008701610aee565b6001600160801b03161161030e5760405162461bcd60e51b815260206004820152601960248201527f657374696d6174696f6e20616c7265616479206578697374730000000000000060448201526064015b60405180910390fd5b60405180604001604052808580360381019061032a9190610bb3565b815260200184848080601f016020809104026020016040519081016040528093929190818152602001838380828437600092018290525093909452505061024087013581526001602081815260409283902085518051805183558084015194830194909455928401516002820155828201518051600383015580830151600483015584015160058201558284015180516006830155808301516007830155840151600882015560608301518051600983015580830151600a830155840151600b82015560808301518051600c83015580830151600d83015590930151600e84015560a0820151600f8401805460c085015160ff90931670ffffffffffffffffffffffffffffffffff19909116176101006001600160801b03909316830217905560e0830151601085015590910151601183015583015190915060128201906104729082610cb7565b50505050505050565b6104836106fd565b61048d600061072a565b565b61049761077a565b600082815260016020818152604080842081516101c081018352815461016082019081529482015461018082015260028201546101a08201528083019485528251606081810185526003840154825260048401548287015260058401548286015282810191909152835180820185526006840154815260078401548187015260088401548186015260808301528351808201855260098401548152600a84015481870152600b8401548186015260a083015283518082018552600c8401548152600d84015481870152600e8401549481019490945260c0820193909352600f82015460ff811660e08301526001600160801b0361010091829004169082015260108201546101208201526011820154610140820152938452601281018054929594939192918401916105c890610a98565b80601f01602080910402602001604051908101604052809291908181526020018280546105f490610a98565b80156106415780601f1061061657610100808354040283529160200191610641565b820191906000526020600020905b81548152906001019060200180831161062457829003601f168201915b50505050508152505090506000816000015160c001516001600160801b0316116106ad5760405162461bcd60e51b815260206004820152601a60248201527f6e6f20657374696d6174696f6e7320666f72206e6574776f726b0000000000006044820152606401610305565b80516020909101519094909350915050565b6106c76106fd565b6001600160a01b0381166106f157604051631e4fbdf760e01b815260006004820152602401610305565b6106fa8161072a565b50565b6000546001600160a01b0316331461048d5760405163118cdaa760e01b8152336004820152602401610305565b600080546001600160a01b038381166001600160a01b0319831681178455604051919092169283917f8be0079c531659141344cd1fd0a4f28419497f9722a3daafe3b4186f6b6457e09190a35050565b6040518061012001604052806107aa60405180606001604052806000815260200160008152602001600081525090565b81526020016107d360405180606001604052806000815260200160008152602001600081525090565b81526020016107fc60405180606001604052806000815260200160008152602001600081525090565b815260200161082560405180606001604052806000815260200160008152602001600081525090565b815260200161084e60405180606001604052806000815260200160008152602001600081525090565b8152600060208201819052604082018190526060820181905260809091015290565b600080600083850361028081121561088757600080fd5b61026081121561089657600080fd5b5083925061026084013567ffffffffffffffff8111156108b557600080fd5b8401601f810186136108c657600080fd5b803567ffffffffffffffff8111156108dd57600080fd5b8660208284010111156108ef57600080fd5b939660209190910195509293505050565b60006020828403121561091257600080fd5b5035919050565b6000815180845260005b8181101561093f57602081850181015186830182015201610923565b506000602082860101526020601f19601f83011685010191505092915050565b61097e8184518051825260208082015190830152604090810151910152565b60208381015180516060840152908101516080830152604081015160a083015260009050604084810151805160c0850152602081015160e085015290810151610100840152506060840151805161012084015260208101516101408401526040810151610160840152506080840151805161018084015260208101516101a084015260408101516101c08401525060a084015160ff81166101e08401525060c08401516001600160801b0381166102008401525060e0840151610220830152610100840151610240830152610280610260830152610a60610280830184610919565b949350505050565b600060208284031215610a7a57600080fd5b81356001600160a01b0381168114610a9157600080fd5b9392505050565b600181811c90821680610aac57607f821691505b602082108103610acc57634e487b7160e01b600052602260045260246000fd5b50919050565b80356001600160801b0381168114610ae957600080fd5b919050565b600060208284031215610b0057600080fd5b610a9182610ad2565b634e487b7160e01b600052604160045260246000fd5b604051610120810167ffffffffffffffff81118282101715610b4357610b43610b09565b60405290565b600060608284031215610b5b57600080fd5b6040516060810167ffffffffffffffff81118282101715610b7e57610b7e610b09565b60409081528335825260208085013590830152928301359281019290925250919050565b803560ff81168114610ae957600080fd5b6000610260828403128015610bc757600080fd5b50610bd0610b1f565b610bda8484610b49565b8152610be98460608501610b49565b6020820152610bfb8460c08501610b49565b6040820152610c0e846101208501610b49565b6060820152610c21846101808501610b49565b6080820152610c336101e08401610ba2565b60a0820152610c456102008401610ad2565b60c082015261022083013560e08201526102409092013561010083015250919050565b601f821115610cb257806000526020600020601f840160051c81016020851015610c8f5750805b601f840160051c820191505b81811015610caf5760008155600101610c9b565b50505b505050565b815167ffffffffffffffff811115610cd157610cd1610b09565b610ce581610cdf8454610a98565b84610c68565b6020601f821160018114610d195760008315610d015750848201515b600019600385901b1c1916600184901b178455610caf565b600084815260208120601f198516915b82811015610d495787850151825560209485019460019092019101610d29565b5084821015610d675786840151600019600387901b60f8161c191681555b50505050600190811b0190555056fea2646970667358221220443df65ae0899c18a47af739aaf48eeed8869d8ac1744c463621fa561de46ef764736f6c634300081a0033",
    "linkReferences": {}
  },
  "methodIdentifiers": {
    "getEstimation(uint256)": "84509760",
    "owner()": "8da5cb5b",
    "renounceOwnership()": "715018a6",
    "setEstimation(((uint256,uint256,uint256),(uint256,uint256,uint256),(uint256,uint256,uint256),(uint256,uint256,uint256),(uint256,uint256,uint256),uint8,uint128,uint256,uint256),bytes)": "24dab52b",
    "transferOwnership(address)": "f2fde38b"
  },
  "id": 27
}